:020000021000EC
:1000000000000420619D0100999D0100CD80010048
:100010009D9D0100D9800100DF80010000000000EB
:10002000000000000000000000000000B92C0100EA
:10003000A59D010000000000532D0100632D01006B
:100040004DDB01009D510100AB9D0100AB9D010006
:10005000AB9D0100AB9D0100AB9D0100AB9D01007C
:10006000AB9D0100AB9D0100AB9D0100AB9D01006C
:10007000AB9D0100E1DC0100AB9D0100B551010029
:10008000AB9D0100AB9D0100AB9D0100AB9D01004C
:10009000AB9D0100AB9D0100AB9D0100AB9D01003C
:1000A000AB9D0100AB9D0100AB9D0100AB9D01002C
:1000B000AB9D0100AB9D01000000000000000000AE
:1000C000AB9D0100AB9D0100AB9D0100AB9D01000C
:1000D000AB9D0100AB9D0100AB9D0100AB9D0100FC
:1000E000AB9D0100AB9D0100AB9D01000000000035
:1000F00000000000AB9D010000000000AB9D01006E
:1001000010B5054C237833B9044B13B10448AFF351
:1001100000800123237010BD50100020000000005B
:10012000AC67020008B5034B1BB103490348AFF3AA
:10013000008008BD0000000054100020AC670200E1
:10014000154B002B08BF134B9D46A3F5803A0021A9
:100150008B460F461348144A121A10F099FF0F4BA2
:10016000002B00D098470E4B002B00D09847002062
:10017000002104000D000D48002802D00C4808F0B2
:100180003DFD10F093FA2000290004F03DFE08F038
:1001900032FD00BF00000800000004200000000045
:1001A000654D01005010002080B60020FD8B01003D
:1001B0000000000008B5054800F05DFC20B90449C6
:1001C000044802F015FBFEE708BD00BFE81100205F
:1001D000904602001419002038B5054610460C461A
:1001E00002F088FC07EE900AF8EEE74A9FED1C7AD1
:1001F000C5ED004AD4ED027AD4ED016A9FED195A9B
:10020000D5ED015A95ED026A27EE877AA6EE857A3A
:100210009FED155AA4EE857ADFED144AA5EEA47A77
:10022000A6EE057A9FED125A67EE857A9FED115A78
:10023000E6EE857ADFED106AE7EE267A9FED0F7A1B
:10024000E5EE877AE6EE267AC4ED007A6B68AB605D
:100250002B686B606368A3602368636038BD00BF70
:100260004AECFABEA671AA3F543FCF3F9D1A45C043
:100270000626D9BE9189953FC2FF823DC2FF023E4C
:1002800007EE101A1949096889000A44D2ED007A6C
:1002900077EE677A1944C1ED007A82ED007A144A4C
:1002A0009FED147A126800218A4205DDF3EC017A91
:1002B000013137EE277AF7E707EE902AF8EEE77A72
:1002C000C7EE276ADDED007AF4EEE76AF1EE10FA88
:1002D00002DD012303707047DDED017AF4EEE76A79
:1002E000F1EE10FAF7D50023F4E700BFB0100020BC
:1002F000040200200000000073B52D4C2D4E2E4D41
:100300002E4821460E22FFF767FF019600952168CF
:100310002B4C2C4B2C4A2D48FFF7B2FF21461022C4
:100320002B48FFF759FF019600952168294C2A4B6D
:100330002A4A2B48FFF7A4FF214612222948FFF73B
:100340004BFF294B0193294B00932168284C294BE3
:10035000294A2A48FFF794FF214613222848FFF72D
:100360003BFF284B0193284B00932168274C284BD7
:10037000284A2948FFF784FF214615222748FFF71E
:100380002BFF274B0193274B00932168264B274ACD
:100390002748FFF775FF274A274913680968013383
:1003A0008B42136004BF0023136002B070BD00BF16
:1003B00080110020000020C200002042B81100205F
:1003C0006C1000208C110020A0110020B41100201E
:1003D000A4100020B4100020781000208C10002001
:1003E000A0100020EC1000200000F0C10000F0413F
:1003F0003C110020C0100020D4100020E810002084
:10040000741100200000C8C10000C841F81000208D
:10041000481100205C1100207011002030110020D4
:10042000000048C2000048420411002018110020BA
:100430002C110020B01000200402002030B587B03D
:100440007F49804D804C684602F053FA694603A804
:1004500002F070FA7D4903A802F0BBFA0146684633
:1004600002F059FA03A802F0F9F9694603A802F06C
:1004700061FA774B197803A8002914BF2946214651
:1004800002F0A7FA734902F0A4FA0146684602F0A6
:1004900042FA03A802F0E2F9694603A802F04AFA18
:1004A0006D4B197803A8002914BF2946214602F094
:1004B00090FA684902F08DFA0146684602F02BFA7C
:1004C00003A802F0CBF9694603A802F033FA634BA4
:1004D000197803A8002914BF2946214602F079FAA9
:1004E0005C4902F076FA0146684602F014FA03A865
:1004F00002F0B4F9694603A802F01CFA584B1978C7
:1005000003A8002914BF2946214602F062FA514986
:1005100002F05FFA0146684602F0FDF903A802F016
:100520009DF9694603A802F005FA4E4B197803A815
:10053000002914BF2946214602F04BFA454902F032
:1005400048FA0146684602F0E6F903A802F086F987
:10055000694603A802F0EEF9434B03A8196802F0BC
:1005600045FA3C4902F035FA404B196802F03EFA70
:10057000384902F02EFA3E4B196802F037FA354935
:1005800002F027FA0146684602F0C5F903A802F016
:1005900065F9694603A802F0CDF9364B03A819683E
:1005A00002F024FA2B4902F014FA334B196802F0D6
:1005B0001DFA284902F00DFA304B196802F016FABC
:1005C000244902F006FA0146684602F0A4F903A89D
:1005D00002F044F9694603A802F0ACF9284B03A8DD
:1005E000196802F003FA1B4902F0F3F9254B196868
:1005F00002F0FCF9174902F0ECF9234B196802F0FC
:10060000F5F90146684602F086F903A802F026F9DA
:10061000694603A802F08EF91C4903A802F0D9F933
:100620000146684602F077F903A802F017F9694617
:10063000174802F0D3F8684602F010F907B030BD51
:10064000AA46020040640200EC560200B1460200D5
:10065000B4110020B3460200A0100020E8100020D2
:10066000701100202C110020CC110020D811002086
:10067000E4110020C8110020D4110020E011002056
:10068000C4110020D0110020DC110020B54602006A
:10069000141900204FF41651014800F085BD00BF29
:1006A0001419002008B5FFF7F5FFBDE80840FFF773
:1006B00081BD000010B5104800F08AF828B10F4B3A
:1006C0000F4A10490C4800F04DF90B4800F078F83B
:1006D00028B10D4B0D4A0E49074800F0FBF80648BB
:1006E00000F066F838B10B4B0B4A0C490248BDE8E4
:1006F000104000F0A7B810BDE8110020E411002060
:10070000D8110020CC110020E0110020D4110020CD
:10071000C8110020DC110020D0110020C4110020DD
:1007200010B502F0A7F90446FFF7C4FFFFF7E4FD98
:10073000FFF784FE02F09EF904F51C541034201AD1
:10074000BDE8104002F0A4B97047000000487047AF
:100750000000EE42004870470000A04110B508219B
:10076000044608F06BFC204610BD70B50446406896
:100770000368DB6A16460D46984760680368314691
:100780001B689847606803685B6B984768B9606846
:1007900003680122DB6B29469847012805D1606870
:1007A0000368BDE870405B6918474FF0FF3070BDCB
:1007B00008B517226B21FFF7D8FF00F0010008BD34
:1007C00008B517226B21FFF7D0FFC0F3400008BD2A
:1007D00008B527221E21FFF7C8FFC0F3C00008BDDF
:1007E0002DE9F04105464068069F1E460368DB6A16
:1007F0001446884698476868036844F080019B6CFB
:1008000098476868036800211B6B9847044688B9BD
:10081000686803683A46DB6B41469847B8420DD199
:100820003418A6420CD0686803685B69984706F8DC
:10083000010BF6E74FF0FF30BDE8F0812046FBE703
:100840000120F9E77FB51C4606230E4615460093A6
:10085000282202AB6B21FFF7C3FF28B91B4B336083
:100860002B60236004B070BDBDF908000EF00EFCD3
:100870000022174B0EF074FC00224FF07C530EF058
:100880006FFC0EF01DFF3060BDF90A000EF0FEFB9C
:1008900000220F4B0EF064FC00224FF07C530EF050
:1008A0005FFC0EF00DFF2860BDF90C000EF0EEFBB2
:1008B0000022074B0EF054FC00224FF07C530EF048
:1008C0004FFC0EF0FDFE20600120CBE70000C07F52
:1008D000000010407FB51C4606230E4615460093C7
:1008E000182202AB6B21FFF77BFF28B91B4B33604B
:1008F0002B60236004B070BDBDF908000EF0C6FB8C
:100900000022174B0EF02CFC00224FF07C530EF00F
:1009100027FC0EF0D5FE3060BDF90A000EF0B6FBE4
:1009200000220F4B0EF01CFC00224FF07C530EF007
:1009300017FC0EF0C5FE2860BDF90C000EF0A6FBFA
:100940000022074B0EF00CFC00224FF07C530EF0FF
:1009500007FC0EF0B5FE20600120CBE70000C07F51
:1009600000409F407FB51C4606230E461546009367
:10097000282202AB1E21FFF733FF28B9214B336039
:100980002B60236004B070BDBDF908000EF07EFB43
:1009900000221D4B0EF0E4FB00221C4B0EF0E0FB8E
:1009A00000224FF07C530EF0DBFB0EF089FE30602E
:1009B000BDF90A000EF06AFB0022134B0EF0D0FBCB
:1009C0000022124B0EF0CCFB00224FF07C530EF0B5
:1009D000C7FB0EF075FE2860BDF90C000EF056FB4B
:1009E0000022094B0EF0BCFB0022084B0EF0B8FBB6
:1009F00000224FF07C530EF0B3FB0EF061FE20603E
:100A00000120BFE70000C07F0000104000005940F7
:100A100070B5044640681D460368DB6A1646984771
:100A20006068036831461B68984760680368294618
:100A30001A689047606803685B6B9847B0FA80F06B
:100A4000400970BD10B50323044622221E21FFF782
:100A5000DFFF002310226B212046FFF7D9FF002380
:100A6000204620226B21FFF7D3FF60680368BDE8B2
:100A700010405B6A184710B5044640680368DB699C
:100A80009847052322226B212046FFF7C1FF0C2344
:100A900021221E212046FFF7BBFF0A2001F0F6FFAE
:100AA0000F226B212046FFF760FE682804D0204605
:100AB000FFF7C8FF002010BD0F221E212046FFF7C0
:100AC00054FE3D28F3D1782310226B212046FFF7F6
:100AD0009FFF702320226B212046FFF799FFB4234C
:100AE00020221E212046FFF793FF002321221E21F2
:100AF0002046FFF78DFF002322221E212046FFF70C
:100B000087FF0120D7E700000448054B0360054A32
:100B1000054B0649436008F06CB800BFE81100209F
:100B2000C046020000020020E41400204907010032
:100B30000020704770470368C9B21B681847490016
:100B40000023C161C0F82C327047036801211B6B80
:100B5000184710B403689C6B0123A4465DF8044B4E
:100B60006047D0F82C32B3F5807F1FBF5A1CC0F805
:100B70002C22C01880F82C1114BF012000207047CF
:100B8000D0F8280170477047C0F830127047C0F89D
:100B9000341270470346D0F82801A8B1D3F82821B1
:100BA00082B1D3F824211A4492F82000D3F82421EA
:100BB0000132D2B2C3F82421D3F82821013AC3F874
:100BC000282170474FF0FF307047D0F828312BB103
:100BD000D0F82431184490F8200070474FF0FF30CF
:100BE0007047000010B5044B0360044600F50E701A
:100BF00008F06EFD204610BD0C47020038B50446D3
:100C0000A82008F005FA94F9192094F9181005465F
:100C100004F0C8FC656138BD7FB5044648200E4627
:100C200008F0F6F994F9192094F91810054604F023
:100C3000F3FC71002846256104F00AFD094B03937B
:100C4000094B01936946002304F50E70029300944A
:100C500008F0ACFC039B13B19B686846984704B04E
:100C600070BD00BFEC460200970D01000B680360E9
:100C70004B6843608B688360704738B5D0F82C327E
:100C800014461A44B2F5807F88BFC3F580740546C8
:100C900000F596702246184410F0FCF8D5F82C3276
:100CA0002344C5F82C32204638BD10B504464069AF
:100CB00010B10368DB689847206920B14821BDE87E
:100CC000104008F0BBB910BD38B5044640690D4668
:100CD00008B104F08BFB206920B12946BDE83840FB
:100CE00004F0B4BC38BD1FB50246D0F82C32D4692C
:100CF000406981F0010100913BB9012303AA21461B
:100D000004F0A5FBC0B204B010BD02F596722146F6
:100D100004F07EFB002814BF02200020F3E770B52A
:100D2000C2B083F00103009302AE04461546134699
:100D300049003246406904F08AFBC8B9A84218D07D
:100D4000D4F82831B3F5807F10D0D4F82031325C4C
:100D5000234483F82020D4F820310133DBB2C4F8D7
:100D60002031D4F828310133C4F828310130E5E7C7
:100D70000025284642B070BD10B4D0E901340168A6
:100D80006210E40701EB020048BF8A585DF8044B8B
:100D900048BFD358184730B50446BDB00025206978
:100DA00004F05DFC0328FAD8DFE800F04C021414CC
:100DB000D4F8343203B19847D4F82C2232B104F578
:100DC0009671206904F04FFCC4F82C52206904F09D
:100DD00052FCE4E7C4F82051F022C4F824516946DB
:100DE000C4F82851206904F03CFC002282421DDA3C
:100DF000D4F82831B3F5807F18D0D4F82831B3F572
:100E0000807F11D0D4F820311DF80210234483F8DC
:100E10002010D4F820310133DBB2C4F82031D4F8EB
:100E200028310133C4F828310132DFE7D4F8283102
:100E3000002BB4DDD4F83032002BB0D0D4F8280128
:100E40009847ACE701F034FEA9E7000010B504466E
:100E500000F091F884423BBF2401024B4FF0FF3079
:100E6000185710BD5402002073B54FF47A73002553
:100E7000C0E901531A4B03600446C0E904550176EA
:100E8000427629464FF48072203010F001F9154B5C
:100E9000C4F82051C4F838322946C4F82451C4F8A3
:100EA0002C52C4F82851C4F83052C4F83452C4F853
:100EB000485204F51E7008F0D1FA04F5237008F0CA
:100EC0006BFA04F50E76084B009330462B464FF430
:100ED0000062182108F05EFB204602B070BD00BF22
:100EE0000C4702007C600200F8460200F8B51220B0
:100EF000FFF7ACFF05461320FFF7A8FF104C114E7B
:100F00002946114D02462046FFF7AEFF32462946DC
:100F1000204607F06EFE1E20FFF798FF07461F20B1
:100F2000FFF794FF094C024639462046FFF79CFF25
:100F3000324629462046BDE8F84007F05ABE00BFB9
:100F4000F011002000020020E50B0100E414002055
:100F500030B5A1F11004002500F00F02D3B2092A28
:100F6000CCBF373330338B73CD7302398C424FEAA9
:100F70001010F1D130BD22207047000030B50121A2
:100F800085B0192001F026FE0121192001F064FE30
:100F90004FF080430022C3F85C2503F588334FF4FB
:100FA0008032C3F848230121C3F80823212001F02F
:100FB00011FE0121202001F00DFE0121212001F070
:100FC0004BFE0121202001F047FE104B01221A6048
:100FD0000F4A1368002BFCD00E4B0024C3F80045C9
:100FE000C3F800450C4B0FCB6D4685E80F00234638
:100FF00020464FF0FF3155F823200133042BC2F86F
:101000000005C2F86015F6D105B030BD04200040DF
:1010100044210040002000405C47020038B54FF0FA
:10102000805504462146D5F8A800FFF791FFD5F872
:10103000A40004F11001FFF78BFF202038BD000051
:1010400072B64FF08043B022C3F81C25BFF34F8F18
:101050000549064BCA6802F4E0621343CB60BFF354
:101060004F8F00BFFDE700BF00ED00E00400FA0570
:1010700030B5044687B00D46064901A810F02AFA9B
:1010800022462B4601A90A9810F024FA0A9807B0C4
:1010900030BD00BF6C470200C3680BB19B681847A6
:1010A000704770B590F8343105461446F3B90368BB
:1010B000DB69984704F47063B3F5407F04F0F003F4
:1010C0000CBF0721082104F00F02302B0CBF0223B4
:1010D0000123012A08D0901E42424241A869BDE87E
:1010E0007040006804F0A4BB0222F7E770BD10B5A1
:1010F00090F8343104462BB9A369186804F0C0FB9A
:101100000028F9D010BD38B590F834510446A5B97F
:1011100083695BB1186848B10368DB689847A369C5
:101120001D600421A06907F089FFA5610023C4F8B0
:101130002431C4F82831C4F82C3138BD13B590F8E7
:10114000343104466BBBA369186804F088FB40B3D4
:1011500007F018FAA3691868036801225B690DF1AA
:1011600007019847D4F82C31B3F5807F16D0D4F816
:101170002C31B3F5807F11D0D4F824319DF80720AD
:10118000234483F82420D4F824310133DBB2C4F89B
:101190002431D4F82C310133C4F82C3107F008FA8B
:1011A000D1E702B010BD00007FB590F8343104469D
:1011B0000D46002B34D1866926B9042007F028FF9C
:1011C000A0610660A369186860BB4FF4807007F0E7
:1011D0001FFF2B4694F9212094F92010064604F0B5
:1011E000E7FDA3691E6094F92220531C06D0A06974
:1011F00094F923300068032104F0EAFDA36918681C
:1012000070B10A4B03930022094B01936946009485
:10121000029204F046FB039B13B19B686846984713
:1012200004B070BD294604F0EFFADCE7784702000D
:101230003D11010010B4D0E9013401686210E407E7
:1012400001EB020048BF8A585DF8044B48BFD358F1
:101250001847000008B590F834313BB1012001F087
:1012600015FC0648BDE8084001F026BA82691AB1AB
:101270001368003318BF0123184608BDE01F002083
:1012800070B504460D4601F017FA30B123682946BF
:1012900020461B6CBDE87040184770BDA0F5A070DB
:1012A000EEE7000013B590F834318DF807100446CE
:1012B0002BB1C9B20B48FFF7E3FF02B010BDA36921
:1012C000186804F0DDFA0028F9D0A36918680368EB
:1012D00001221B690DF107019847013018BF012059
:1012E000EBE700BFE01F00202DE9F04107468846EC
:1012F000164601F0E1F970B10024A6420CD9351B65
:10130000402D28BF402508EB04012A46384600F04E
:10131000B9FE2C44F1E704462046BDE8F081A0F573
:10132000A070E1E770B590F8343105460E461446DA
:101330002BB10F48FFF7D8FF0446204670BDAB69BC
:10134000186804F09DFA0028F9D0AB691868D0F845
:10135000FC3001211B6BFC309847AB6918680368AF
:1013600022461B6931469847013008BF0024E4E754
:10137000E01F002030B50446C3B001F017F9D4F8DF
:101380005832C3F5807398420546C4BFD4F858520A
:10139000C5F580752A4601AB02A9204600F05CFF26
:1013A000019902AB6D1A00221D44D4F85832B3F5EE
:1013B000807F19D08A4217D0D4F85832B3F5807F95
:1013C00010D0D4F85032A85C234483F85001D4F8EC
:1013D00050320133DBB2C4F85032D4F85832013302
:1013E000C4F858320132E0E743B030BD38B50446A6
:1013F00000F0F0FA2046FFF7BDFFD4F8585220461F
:1014000000F0F0FA284638BDA0F5A070EEE7000025
:1014100010B590F8343104462BB10648FFF7E6FFCB
:101420000446204610BD07F0ADF8D4F82C4107F073
:10143000BFF8F6E7E01F002038B5044600F0CAFA0E
:101440002046FFF797FFD4F858324BB1D4F8543206
:10145000234493F85051204600F0C4FA284638BD82
:101460004FF0FF35F7E7A0F5A070E5E710B590F86D
:10147000343104462BB10B48FFF7DEFF044620460B
:1014800010BD07F07FF8D4F82C313BB1D4F8280117
:10149000044494F8244007F08BF8F0E74FF0FF3451
:1014A000F9E700BFE01F002038B5044600F092FACB
:1014B0002046FFF75FFFD4F85832A3B1D4F8543276
:1014C000234493F85051D4F854320133DBB2C4F8BA
:1014D0005432D4F85832013BC4F85832204600F058
:1014E00081FA284638BD4FF0FF35F7E7A0F5A07028
:1014F000DAE7000010B590F8343104462BB11148FA
:10150000FFF7D2FF0446204610BD07F03BF8D4F8A1
:101510002C319BB1D4F82831234493F82400D4F81B
:1015200028310133DBB2C4F82831D4F82C31013B27
:10153000C4F82C31044607F03BF8E4E74FF0FF34E1
:10154000F9E700BFE01F002008B54FF480720021CA
:101550000FF09EFD0022C0F80021C0F80421C0F861
:10156000082108BD2DE9F047194C1A4F27600025C6
:101570004FF47A78C4E90158202604F12400C4E924
:101580000565E5614FF00109FFF7DEFF284684F8A5
:101590003491FFF75BFC82464846FFF757FC0E4C40
:1015A000FF2384F82100C4E9015804F124002760D6
:1015B000C4E90565E56184F820A084F8223084F848
:1015C0002330FFF7C1FF84F83451BDE8F08700BF36
:1015D000141900208C470200DC17002000207047FF
:1015E0007047704710B5D0F88C452CB12368204661
:1015F0005B689847A468F8E710BD38B5D0F88C450B
:101600000D4634B1236820469B6829469847A46854
:10161000F7E738BD004870474C48020010B5054B4D
:101620000360044605F0E9FE204605F0FFFE204673
:1016300010BD00BFCC47020010B50446FFF7EEFF17
:1016400020464FF4B26107F0F9FC204610BDF7B513
:10165000D0F88C4505460E460023A4B123683146D8
:10166000DF680DF1030201AB2046B8479DF8031077
:101670000429034605D0019A284605F01BF903B05A
:10168000F0BDA468E9E7019A9DF80310F4E770B58E
:1016900005460E4622B10021BDE8704004F006BFA9
:1016A000D0F88C455CB1236800221B693146204686
:1016B000984710B101212846EEE7A468F2E72146D9
:1016C000F9E770B5D0F88C450E46054600213CB1CF
:1016D0002368314620465B699847A4680146F6E7CF
:1016E0002846BDE8704004F0E1BFF8B5D0F88C455D
:1016F00005460E4617463CB1236820469B693A468C
:1017000031469847A468F6E728460121BDE8F8402D
:1017100005F02AB870B5002186B0044605F0C6FA77
:101720000023ADF8063023898DF810301B0AA188FC
:10173000E2888DF811304FF4897540F20123ADF83D
:101740000450ADF81230022540F20313EF268DF855
:1017500007508DF809508DF80C100125090A8DF8F5
:101760000E20ADF81430120A04F10A038DF8086057
:101770008DF80A508DF80B008DF80D108DF80F20A4
:1017800001AD05AE1C462A4603CAB2421860596034
:10179000154603F10803F6D112881A80204606B0D8
:1017A00070BDF8B5002406460D462746304610F0B9
:1017B00067F8A04207D9335D05F8143005EB440300
:1017C00001345F70F2E7400000F0FE00F8BD38B56C
:1017D000D0F88C55044635B12B6828461B6A9847CB
:1017E00010B9AD68F7E7284640F20233A4F848354F
:1017F00004F24A51FFF7D5FF94F84835184484F8AD
:10180000480504F5A96038BD40F2023310B500F276
:101810000A510446A0F808350548FFF7C2FF94F8BE
:101820000835184484F8080504F5A16010BD00BF10
:10183000B847020040F2023310B50446A0F8C8349D
:1018400000F2CA40FFF7EAFB94F8C834184484F861
:10185000C80404F5996010BD2DE9FF4100238DF8FF
:101860000A3090F888351B4A8DF808300123019220
:101870008DF809303222C0238DF80B308DF80C2002
:1018800001AB044600F54E7803CBC4F83803C8F822
:10189000041088F80820D4F88C6509258EB13368C7
:1018A00000211B6830469847478805F54E73093F6D
:1018B00000F109013A46E0180FF0ECFA3D44B66831
:1018C000ECE784F83A5340462D1284F83B5304B0B9
:1018D000BDE8F0810902FFFF73B504460D461646C8
:1018E00008F0EEF84FF480730093014633462A4621
:1018F000204605F0A3F9024B2360204602B070BDDC
:10190000CC47020010B5D0F88C350446A3B9C0F816
:101910008C1594F888350B7194F888354A791344FE
:1019200084F888350B6808465B6A98472389184411
:101930002081012010BD13469A68002AFBD19960CE
:10194000E7E71FB5044605F073F90146684604F061
:10195000FBFA4021684604F066FBD4F88C4534B1AC
:1019600023682046DB6969469847A468F7E768461C
:1019700004F0F1FA04B010BD10B50446FFF7E1FF22
:101980002046BDE8104005F0C3B8000010B50D4C6E
:101990002378BFF35B8FDB0712D4204607F03CF9B6
:1019A00070B148F25A0242F241310748FFF794FF02
:1019B000204607F053F9054A0549034807F019F98D
:1019C000014810BD4C1A0020501A002000020020CF
:1019D0001D16010010B5FFF7D9FF0368BDE81040E0
:1019E0005B6F184710B5FFF7D1FF0368BDE81040E3
:1019F0009B6F184710B5FFF7C9FF0368BDE810409B
:101A0000DB6F184704F04CBC04F00EBC04F038BC8B
:101A1000704770477047436A93F878007047D0F872
:101A2000240170470120704700487047B449020004
:101A30002DE9F04F044697B00F464B22002103A832
:101A40000FF026FBD4F82431267994F80EA094F8F0
:101A50000C90002B06F10105637B019314BF052058
:101A60000020EDB2002F40F0978040F20923ADF83E
:101A70000C304FF48173ADF8103080238DF81330A3
:101A800032238DF8143008238DF815300B230121F3
:101A90008DF816308DF8250040F2022342F2054001
:101AA0004FF0240C4FF0090E04274B22ADF81830EC
:101AB0008DF8211002238DF82410ADF826004FF088
:101AC000100805208DF82A108DF82D108DF82F1094
:101AD0004FF0030B06218DF80E208DF817608DF85E
:101AE0001A308DF81DE08DF81F608DF822308DF8CA
:101AF00023308DF82B008DF82CC08DF831C08DF877
:101B000032308DF833108DF834008DF835C08DF8F3
:101B10001E708DF829808DF82EB08DF830708DF8FC
:101B2000361007218DF839108DF8491044F2020162
:101B3000ADF84C1040F20751ADF850101D349DF82F
:101B400004108DF837608DF838508DF83A008DF814
:101B500042508DF84A008DF852108DF8533044F2FF
:101B60000306402340F6022503A920468DF83BA03A
:101B7000ADF83C608DF83F808DF840E08DF8417005
:101B8000ADF844508DF84B908DF854300FF082F939
:101B9000204617B0BDE8F08F0020FAE738B50546BB
:101BA0000A4B45F8D03B0446FFF7F0FE05F025FC54
:101BB000284604F0D3FA04F17C0004F0CFFA04F1D3
:101BC000700004F0CBFA204638BD00BF7449020013
:101BD00010B50446FFF7E2FF20464FF4947107F07A
:101BE0002DFA204610BDFFF705BF000010B5034BCE
:101BF0000360044604F030F9204610BD944802000A
:101C000010B50446FFF7F2FF2046282107F016FA28
:101C1000204610BD10B5034B0360044604F01CF9C8
:101C2000204610BD6448020010B50446FFF7F2FFDD
:101C30002046342107F002FA204610BD10B5034BB0
:101C40000360044604F008F9204610BD7C480200F9
:101C500010B50446FFF7F2FF2046382107F0EEF9F1
:101C6000204610BD38B51C4B0D461968C0F80F1042
:101C700099889B7943750446A0F8131040220221ED
:101C8000284604F0C6F9402220730221284604F0B9
:101C9000C5F9402260730321284604F0BAF9A07305
:101CA000284604F059F920B9AF220C490C4806F037
:101CB000BFFB002304F18502C4E9322304F1D902F9
:101CC00084F8783084F8843084F8D830C4F81C2143
:101CD000C4F8203138BD00BFB0480200EC48020013
:101CE0005A4902002DE9F34104460E461546FFF716
:101CF00081FEF28823799A4237D1002D35D1777849
:101D0000012F2ED1F378202B27D13289072A24D115
:101D100004F10F0804F11605294640460FF088F833
:101D2000D0B1D4F81630C4F80F30207CE17B638B3F
:101D3000A4F8133001EB0021607CE57C237F009543
:101D400001EB00412568A07C637501EB0061237DF8
:101D5000627D6D6B2046A8473D46F378212B08BF76
:101D60000125284602B0BDE8F0810025F9E710B54D
:101D70000446FFF73FFEFFF709FE217B05F0DAF985
:101D800004F18503C4F8C8300023C4F8CC3084F8CB
:101D9000843004F17C0004F096F994F884302BB977
:101DA00023682046DB6BBDE81040184710BD0000DB
:101DB00070B50446FFF71EFED4F820512DB140F255
:101DC000DD120F490F4806F033FB04F1D903C4F8C4
:101DD0001C31FFF7DBFD617B05F00AF984F8D85070
:101DE000C4F8200104F1D00004F06DF994F8D83063
:101DF0002BB9236820469B6BBDE87040184770BD27
:101E0000EC480200BC48020010B4D0E9013401687B
:101E10006210E40701EB020048BF8A585DF8044BEA
:101E200048BFD35818470000F0B5044687B002AD4C
:101E3000FFF7E0FD0026FFF7A9FDA17B0095032336
:101E40004022059604F07EFE2846FFF725F9FFF7AD
:101E50009DFD164B217B164F00954022CDE90336A0
:101E600002230597029404F06DFE2846FFF714F94B
:101E7000FFF78CFD0F4B617B00954022CDE90336C7
:101E800002230597029404F05DFE2846FFF704F94B
:101E9000FFF77CFD4023D4F81C21617B05F04AF854
:101EA000012084F8D80007B0F0BD00BF6F1D01000D
:101EB000A4480200B11D010038B50223437100237C
:101EC00083600C4B044640F8703B154604F0EEF876
:101ED00004F17C0004F0EAF804F1D00004F0E6F824
:101EE000C4F82451FFF752FD2146FFF70BFD2046B1
:101EF00038BD00BF7449020070B504460D46FFF7B7
:101F000079FD84F87850002D3ED194F8843033B1B7
:101F1000FFF73CFD217B04F0E5FE84F8845004F1DA
:101F2000850304F17C0600253046C4F8C830C4F8A7
:101F3000CC5004F0C8F8304604F0BEF828B9154972
:101F400015484FF4A27206F073FA94F8D83033B102
:101F5000FFF71CFD217B04F0C5FE84F8D85004F186
:101F6000D903C4F81C3104F1D00500232846C4F875
:101F7000203104F0A8F8284604F09EF820B94FF468
:101F8000A77204490548DEE704F17000BDE870401F
:101F900004F099B8EC480200CA480200DB4802008D
:101FA00010B50446FFF726FD20460021BDE810408D
:101FB000FFF7A2BF38B50D460446FFF71BFD042D01
:101FC00005D020460021BDE83840FFF795BF38BD59
:101FD000F8B5164604460D461F46FFF70BFD0423D1
:101FE0003370EA8823799A4225D16978012922D170
:101FF000EA78212A08D0222A0BD0202A4FF00000AC
:102000001BD13070163401E031700F343C60072072
:10201000F8BDAB8813F0010308BF19462046FFF74F
:102020006BFFAB8803F00103E366AB8803F00203A8
:10203000A366022333700020EAE703233370E7E747
:1020400010B58AB00446FFF7C5FC684603F0F8FEF9
:102050000A4B0093694604F17000099404F04BF8B0
:102060002046FFF7BFFC064B00211A68684603F0C4
:1020700031FF6846FFF7BAFD0AB010BD9448020070
:10208000B848020070B58EB0154604460E46FFF7FC
:10209000A1FC01A803F0D4FE0E4B0C9501A900256C
:1020A00004F17C000193CDE90A468DF8345004F028
:1020B00022F82046FFF796FC074B29461A6801A82C
:1020C00003F008FF01A89DF83440FFF7A3FD204668
:1020D0000EB070BD64480200B848020010B5044656
:1020E000FFF788FC94F884307BB9D4F8CC3063B126
:1020F000FFF74CFCD4F8CC30217B04F1850204F0CE
:10210000B7FF10B1012384F8843010BD2DE9F843E6
:102110001E460446894690469DF82070FFF75AFCFB
:102120000023336094F87830E3B194F88430CBB96D
:10213000D4F8CC50C5F14005454528BF4546B8F117
:10214000000F05D02A464946D4F8C8000EF0A2FE7A
:10215000D4F8CC302B44C4F8CC30356017B12046CD
:10216000FFF7BCFF2046BDE8F843FFF73BBCF0B5E6
:102170000446406A90F8785085B001262DB984F85D
:1021800030503546284605B0F0BD04AB002743F873
:10219000047DD4E90A120096FFF7B8FF0399E36AB9
:1021A000A26A5B1A0A44E362A26213B984F830603F
:1021B000E8E7606AFFF792FF3D46E3E72DE9F04369
:1021C0001C4691B0904606468946FFF703FC002C5A
:1021D00008BF01AC4FF00005256002A80CBF012725
:1021E000002703F02DFE104B029302A906F1D00048
:1021F000CDE90D84CDE90B698DF83C708DF83D502B
:1022000003F079FF3046FFF7EDFB084B29461A68CB
:1022100002A803F05FFE02A89DF83D40FFF70EFD07
:10222000204611B0BDE8F0837C480200B8480200A7
:1022300010B5D0F8203104466BB990F8D83053B9B6
:10224000FFF7A4FB402304F1D902617B04F072FE86
:10225000012384F8D83010BD70B51E460446002313
:10226000336094F878300846EBB194F8D830D3B99D
:10227000D4F82051D4F81C11954228BF15462A469F
:102280000EF008FE3560D4F81C31D4F820212B4420
:10229000551BC4F81C31C4F8205125B92046BDE8AF
:1022A0007040FFF7C5BF70BD37B50446406A90F86F
:1022B00078502DB984F835500125284603B030BD3B
:1022C00002AB002243F8042DD4E90A12FFF7C4FF41
:1022D0000199A26A0A44A262226B13680B4413603C
:1022E000E36A01995B1A94F83410E36209B9126841
:1022F00002B91BB9012384F83530DEE7606AFFF7C5
:1023000097FF0025D9E76FF01500704700290CBF33
:102310006FF0180000207047012070476FF0150023
:1023200070476FF015007047112070477047704775
:10233000704703689B6C1847A0F5A070F9E77047D9
:102340007047704770470368184710B5044601206E
:1023500000F09CFB94F8780010BDA0F5A070F4E7A5
:1023600038B54FF0FF320123FF210B480B4D06F02B
:10237000EDFF00F06DFB044695F878301BB10120AD
:1023800000F084FBF8E700F063FB001BC728F6D9D8
:10239000BDE83840FEF754BE98220020E01F002020
:1023A00007B502AB012243F8041D1946FFF76AFE88
:1023B00018B1019803B05DF804FB4FF0FF30F9E766
:1023C000A0F59470FFF7ECBF07B502A9002301F850
:1023D000013D0122FFF7F2FE20B19DF8070003B096
:1023E0005DF804FB4FF0FF30F9E7A0F59470FFF7BC
:1023F000EBBF2DE9F8430446884617461E46089D64
:10240000FFF7F8FAD4F87092B9F1000F04D02B4618
:10241000324639464046C847C4F86082C4F8647200
:10242000C4F86862C4F86C52BDE8F88370B506461B
:10243000FFF7E0FA06F51D740025D6F8B432AB427A
:1024400008D92046103454F8043C1BB11B68984747
:102450000135F2E770BD0000B0F5966F03D10121A0
:10246000014806F055BF70479822002010B4D0E90B
:10247000013401686210E40701EB020048BF8A588A
:102480005DF8044B48BFD35818470000114B03F1C7
:10249000780270B50360C0F8282103F1D802E83350
:1024A0000446C0F82C21C0F8403100F51D7600F537
:1024B0002D75AE4204D0103D2846FEF7EDFDF8E73D
:1024C00004F5947005F084FC2046FFF767FB204676
:1024D00070BD00BFF4490200A0F59470FFF7D6BFAD
:1024E000A0F59670FFF7D2BF10B50446FFF7CEFFF8
:1024F00020464FF42E7106F0A1FD204610BDA0F538
:102500009670FFF7F1BFA0F59470FFF7EDBF0000E4
:10251000F7B5044615461F460E4607F0D1FABDF83A
:1025200024300193BDF8203000932A463B460146F3
:102530002046FFF7C1FC002104F5947005F01EFC55
:102540004FF47A73C4F84831174B236003F17802D3
:102550000025C4F8282103F1D802E833C4F82C215F
:10256000C4F84451C4F840314FF48072294604F550
:10257000A8700EF08DFDC4F85052C4F88052C4F813
:102580005452C4F89052C4F85852C4F8A052C4F837
:10259000B052C4F8B452C4F8705216B12046FFF7D6
:1025A0004FFD204603B0F0BDF449020038B50546A2
:1025B000FFF710FA95F8D8304BB9D5F82041402CE8
:1025C00028BF40242846FFF70DFA204638BD0024D6
:1025D000F8E7000070B5044686B0FFF7FBF92D4B15
:1025E000C4F870322046FFF7FDF92B4B05932B4BB7
:1025F00003932046002302940493FFF7EBF9D4F8E9
:10260000B452032D13D804EB05166B1C06F51D768A
:10261000C4F8B4323046FEF73FFD04EB0515059BC8
:10262000C5F880321BB15B6802A930469847204646
:10263000FFF7D8F902A8FEF72FFDBC2006F0E8FC52
:102640000026174B0360054631460661403006F010
:1026500005FF05F1540006F09FFE124B00934FF466
:10266000807233462846182106F094FF0E4B0593DE
:102670000E4BC4F85C5202A92846CDE902360496F6
:1026800006F094FF02A8FEF707FD2046FEF772FE53
:1026900006B070BD59240100CC4902007513010039
:1026A0007C600200E4490200D84902006123010075
:1026B000A0F5A070FFF78EBF90F87800704700007B
:1026C00037B50F4C0F4D204606F018FE2A460E492E
:1026D000204606F08EFA0D4C42F212030122CDE99B
:1026E0000032002211464FF4F8532046FFF710FF46
:1026F00007492A46204603B0BDE8304006F079BAC3
:10270000982200200002002017930100E01F002003
:102710008D24010008B50DF0F3F92DE9F8430646C4
:102720000D46071D00F10709002417F8011B0A22B6
:10273000284600F091F82E218046284600F044F803
:102740004F4540440444F0D10A22F179284600F074
:1027500083F82044BDE8F883024B034A1A60002244
:102760005A607047AC220020104B02002DE9F04166
:1027700006460D4601EB02080C464445A4EB05074E
:1027800007D0336814F8011B1B68304698470028AF
:10279000F3D13846BDE8F08170B5044608460D46D1
:1027A0000FF06EF823680246294620465B68BDE8B4
:1027B0007040184709B1FFF7EFBF0846704703683C
:1027C0008A685B680968184703681B681847000037
:1027D0000149FFF7E1BF00BFAF5D020038B5054614
:1027E000FFF7EDFF04462846FFF7F2FF204438BD0F
:1027F00038B50546FFF7DEFF04462846FFF7E8FF39
:10280000204438BD70B58AB00D460AA9002301F8EE
:10281000043D012A98BF0A22B5FBF2F402FB1456CC
:10282000F3B2092E94BF30333733DBB2254601F8BB
:10283000013D002CF0D1FFF7BDFF0AB070BD10B410
:102840002AB903685DF8044B1B68C9B21847D2B2B5
:102850005DF8044BFFF7D6BFFFF7F1BF10B5044694
:10286000006808B10DF0CEFF204610BD10B504463B
:10287000006808B10DF0C6FF00232360C4E90133EE
:1028800010BD38B504460D46006801310EF060FCFD
:1028900010B1C4E90005012038BD036810B5044635
:1028A00023B143688B4201D3012010BD2046FFF7BE
:1028B000E8FF0028F9D0A368002BF5D12268137037
:1028C000F3E770B50E46114604461546FFF7E5FFDF
:1028D00020B92046FFF7CAFF204670BD2A46314680
:1028E000A56020680EF0D6FA2268A3680021D154B2
:1028F000F2E738B500230446C0E9003383600D4693
:1029000039B108460EF0BCFF294602462046FFF7C3
:10291000D8FF204638BD884210B50B46044604D087
:10292000096821B19A68FFF7CCFF204610BDFFF778
:102930009DFFFAE710B500230446C0E90033836029
:10294000FFF7E9FF204610BD2DE9F0410546174687
:10295000884619B900263046BDE8F0819AB18468EE
:1029600014442146FFF799FF06460028F2D0AB68D1
:1029700028683A46184441460EF08CFA2B68AC6041
:1029800000221A55E7E70126E5E738B5054608466F
:102990000C460EF075FF214602462846BDE8384039
:1029A000FFF7D2BF09B1FFF7F0BF0846704710B577
:1029B000044688B008460CF07BFB03AB009304226E
:1029C0000223FEF755FB01462046FFF7EBFF08B058
:1029D00010BD10B5044621B92046FFF747FF204639
:1029E00010BDFFF7DFFF0028F6D0F8E710B504466A
:1029F000FFF7DDFF10B92046FFF738FF204610BD76
:102A000010B500F047F8FEF7B9FAFEF7BFFFFEF782
:102A1000B3FF4FF4E1310648064CFFF7DBFDFDF74D
:102A200041FEFDF77DFE002CFBD0AFF30080F8E700
:102A3000E01F00200000000010B5044603F065F818
:102A4000204610BD10B5044603F05FF8204610BDC7
:102A500007B50749684603F095F84FF47A720023EA
:102A6000DDE900010CF07CFE03B05DF804FB00BF63
:102A7000B822002007B50449684603F083F800989F
:102A800003B05DF804FB00BFD022002006F016BDA5
:102A900006F00ABC08B5044803F041F80348BDE855
:102AA000084003F03CB800BFD0220020B82200202C
:102AB00006F014BD38B50A4C0A4D204603F09FF8C5
:102AC0002046094C09492A4606F093F8204603F0AF
:102AD000A1F82A4620460649BDE8384006F089B8E4
:102AE000D022002000020020B8220020452A010048
:102AF000392A010070B50446FEF73DFA844202D33C
:102B00004FF0FF3070BDFEF736FA8442F8D20D2C3C
:102B1000154B23D803EB041393F9E060721CEFD03C
:102B2000124D05EBC4056C687CB90C2006F070FAF8
:102B30000F4A3146044602F0BDFB0E4B6C601B7819
:102B40001BB10D49204602F07DFB204602F08DFBB3
:102B50000A4B1B68C3F110031841D3E722019E56AC
:102B6000731CCDD00E3CDBE7540200201402002081
:102B70000000C07FD8170020080200207404002045
:102B800008B590F900305A1C04D121220E490F4893
:102B900005F04EFC012259B11F2B86BF03F01F0325
:102BA0000B494FF0A04102FA03F3C1F8083508BD04
:102BB0001F2B86BF03F01F0305494FF0A04102FA07
:102BC00003F3C1F80C35F2E7144B0200A94B0200E5
:102BD000000300502DE9F8431E4D0601AB190446D1
:102BE000D868884610B1012106F028FAFEF7C3F92B
:102BF00084424FF0010034BF15F906904FF0FF39C1
:102C000006F006FA0027077049463544044604F0EA
:102C1000CCFCB8F1010FEC6011D007D3B8F1020F72
:102C200012D0204602F071FB012103E0204602F0A1
:102C30006CFB39462046BDE8F84302F073BB2046E2
:102C4000BDE8F84302F054BB204602F05EFB0321CE
:102C5000F0E700BF540200202DE9F3410746884603
:102C6000FEF789F9874221D2124C3E01A319DD6893
:102C7000ADB9FEF780F987424FF0010034BFA75786
:102C80004FF0FF3706F0C4F93444002305460370C3
:102C90000122CDF80080394604F08AFCE560414607
:102CA000284602B0BDE8F041FFF76ABF02B0BDE8B8
:102CB000F08100BF540200201EF0040F0CBFEFF3A0
:102CC0000880EFF30980816911F8021C002932D1D4
:102CD00001B590E80F10E047BDE800508CE8030014
:102CE000244B93E80600914208BF70471A6041B92F
:102CF0001EF0100F10D1204B186820F00100186052
:102D00000AE02CE9F00F1EF0100F08BF2CED108A1E
:102D100081F822E0C1F838C0906B92F8221061F07F
:102D2000FF0E1EF0100F08BFB0EC108AB0E8F00FD5
:102D300080F309887047114A13689942FAD801B59F
:102D400052F821C00FC8E047BDE80050CCF80000A1
:102D5000704701B501F030FBBDE80140EFF3098C8D
:102D6000BEE701B501F0ECFABDE80140EFF3098CD4
:102D7000B6E700008C04002034EF00E0884C02002D
:102D800008B5014630B96FF0030000F0F2F96FF0BA
:102D9000030008BD132001F0B1FE30B94FF0FF3041
:102DA00000F0E7F94FF0FF30F3E70020F1E7000013
:102DB00008B5EFF305832BB9EFF3108313B9EFF3E5
:102DC000118333B16FF0050000F0D3F96FF0050007
:102DD00008BDDFF808C000DFFAE700BF812D010061
:102DE000EFF310832BB9EFF31180003818BF0120E7
:102DF000704701207047000038B538B38468056813
:102E00006CB114F0030302D1C2680F2A13D86FF01B
:102E10000801002002F0D0F80024204638BDC36825
:102E2000002BF4D1104BD3F8900088B100F0FCFBDC
:102E30000446A0B10123A3700023C4E90233F322A6
:102E4000094B2270094A65605A66E6E70546E9E7DC
:102E5000D3F880000122102100F072FBE8E76FF048
:102E6000040102F0A9F8D8E778040020492F0100F6
:102E700070B5054610B10378F32B07D028466FF0E4
:102E8000030102F099F86FF0030070BD836863B12D
:102E9000284601F0EDFB00226FF0020101F086FDF3
:102EA000A8680028F4D101F06BFCAB78002613F081
:102EB00001032E700FD0094BD3F89040294624B15E
:102EC000204600F0CBFB3046DFE7D3F8800000F06F
:102ED0006CFB2046D9E71846D7E700BF78040020EE
:102EE000930710B502F0010422D400F10C0384B161
:102EF00053E8000F00EA01028A4203D0BFF32F8F8C
:102F0000002005E020EA010243E8002404B1EFE7D5
:102F100010BD53E8000F084203D1BFF32F8F0020EC
:102F200005E020EA010243E8002404B1F1E7EFE7FD
:102F3000C06801EA00031CB18B4218BF0020E7E71C
:102F4000002B08BF0020E3E7F8B58468054604B904
:102F5000F8BD94F82320616AA7682846FFF7C0FFF0
:102F6000064638B1204601F08CFB0022314620464F
:102F700001F01CFD3C46EAE7F8B50D4617461E4633
:102F8000044620B10378F32B01D1002907DA20464B
:102F90006FF0030102F010F86FF00300F8BDFFF7C7
:102FA0009FFF0028FAD186B13146432001F0A6FDEB
:102FB00040B1074B5E692046314601F047FB756220
:102FC00086F823706FF00100E8E76FF00200E5E794
:102FD000780400202DE9F041064620B10378F32B58
:102FE00001D1002909DA6FF00301304601F0E4FF56
:102FF0006FF003052846BDE8F08100F10C0353E8AB
:10300000002F42EA010543E8005000B1F7E7B46839
:103010001CB9204601F0B4FBECE794F82320616A68
:10302000D4F808803046FFF75BFF074678B194F884
:1030300023309B0756BF656A054620EA05052046F2
:1030400001F01FFB00223946204601F0AFFC444648
:10305000DEE7000008B50246EFF3058333B1002038
:103060006FF0050101F0A8FF002008BDFFF7B8FED2
:103070000028F4D1DFF808C0104600DFF5E700BFF4
:10308000F92D010038B502460D46EFF305834BB12B
:1030900092B96FF00301104601F08EFF6FF0030448
:1030A000204638BDFFF79CFE0028F1D1DFF830C084
:1030B000104600DF0446F3E71378F32BE9D1002D27
:1030C000E7DB02F10C0353E8001F41EA050443E883
:1030D000004000B1F7E7104601F0B6F9E0E700BFA5
:1030E000D52F0100F8B504460E4617461D46EFF3EE
:1030F000058343B18CB920466FF0030101F05CFFFA
:103100006FF00300F8BDFFF76BFE0028F2D1DFF887
:103110002CC020462B4600DFF4E72378F32BEAD1BE
:10312000002DE8D1002EE6DB3A4631462046FFF777
:10313000D7FE002808BF6FF00200E3E7792F0100F7
:1031400008B50246EFF305833BB110466FF0050169
:1031500001F032FF6FF0050008BDFFF741FE0028C7
:10316000F3D1DFF808C0104600DFF5E7712E01004B
:1031700070477047EFF310832BB9EFF311800038DD
:1031800018BF01207047012070470000064BDA6A23
:103190003AB1D0695B6C1BB11B69984228BF1846D5
:1031A00070474FF0FF30F5E77804002070B5464CCB
:1031B000237A012B00F0858033B14FF0FF3001F00E
:1031C000EFFE4FF0FF3070BD404DD5E90B61EB686D
:1031D000E3652B8AA4F854303046AB68236400F0D2
:1031E00097F908B1C4F88060D5E90561304600F070
:1031F0008FF908B9D4F880606667D5E90761304671
:1032000000F086F908B9D4F88060A667D5E90961AD
:10321000304600F07DF908B9D4F88060E6676E6B3F
:103220003EB1D6E902233168304600F0DCF9C4F83B
:103230008460AE6B3EB1D6E902233168304600F0BF
:10324000D2F9C4F88860EE6B3EB1D6E9022331684A
:10325000304600F0C8F9C4F88C602E6C3EB1D6E957
:1032600002233168304600F0BEF9C4F890606E6CFD
:103270003EB1D6E902233168304600F0B4F9C4F813
:103280009460AE6C3EB1D6E902233168304600F05E
:10329000AAF9C4F89860EE6C3EB1D6E90223316811
:1032A000304600F0A0F9C4F89C602D6D3DB1D5E921
:1032B00002232968284600F096F9C4F8A05001239B
:1032C000237200207FE700BF78040020184C020022
:1032D00070B5254D2B7A012B07D06FF0060001F059
:1032E0005FFE4FF0FF34204670BD01F04BFC10B97B
:1032F0004FF0FF30F3E71D4A1D4E1E497068FF2353
:1033000082F8223092F82230D26863F0FF03DB4368
:1033100014BFB3FA83F32023C3F12003C2F30222C4
:10332000934298BF531CFE2202FA03F30F4ADBB20A
:10333000D37701F091FE04460028D9D101F0E0FED8
:10334000286101F0C9FE0C4801F092F901F010FA71
:103350003368DB074CBF0223032383F31488BFF3D6
:103360006F8F02232B72BEE77804002000ED00E08F
:10337000184C0200632D01009404002010B50F4C7E
:10338000237A022B13D101F0AFFE01236372BFF346
:103390004F8F0B4A5168C90042BF4FF00061516026
:1033A000A37204232372BDE81040FFF7EFBE6FF055
:1033B000070001F0F5FD002010BD00BF78040020DB
:1033C00000ED00E038B51E4C237A042B054635D1BC
:1033D000FFF7DCFEE26A854203462CBF00F1FF33B3
:1033E0002B4612B1D069C01AD061626C12B110695B
:1033F000C01A1061E26813441544E360E3689D421B
:1034000013D102230020237201F0BAF90023637262
:10341000BFF34F8FA27A22B1A3720A4B4FF08052B2
:103420005A60BDE8384001F057BE0133E36001F057
:1034300065F9236D002BE1D09847DFE738BD00BF69
:103440007804002000ED00E0704738B504460D46D2
:10345000FFF78EFE29462046BDE8384001F062BDE8
:1034600008B5FFF7F1FFEFF3058333B16FF0050007
:1034700001F096FD6FF0050008BDFFF77BFE002808
:10348000F4D1DFF808C000DFF6E700BFAD3101007E
:1034900008B5EFF3058333B16FF0050001F080FD4F
:1034A0006FF0050008BDFFF765FE0028F4D1DFF8D6
:1034B00008C000DFF6E700BFD132010008B5EFF326
:1034C00005832BB16FF0050001F06AFD002008BDF7
:1034D000FFF750FE0028F5D1DFF804C000DFF6E763
:1034E0007D33010008B50246EFF305832BB1BDE83B
:1034F00008406FF0050001F053BDFFF73BFE0028C8
:10350000F5D1DFF808C0104600DF08BDC533010063
:1035100010B598B140EA010313F007030ED1172943
:103520000AD90160083910220C18846042604350A7
:1035300081684A60C3600123184610BD0023FBE781
:1035400070B580B399B132F003032CD10F3121F063
:10355000070600F10804234624685D68E11A25F097
:103560000305491B8E4204D921680029F3D108467E
:1035700070BD0168456801443544456051F8040C4C
:103580000839854288BF4D605868324318B95A607F
:1035900003F10801EBE720F0030019181C504A6002
:1035A00019600831E3E70021E1E710B580B1C1B14E
:1035B000A1F1080400F108030022A34209D15968CF
:1035C00021F003044168091B41603AB95A600120A7
:1035D00010BD19681A4621B10B46EEE71B6813604F
:1035E000F5E70846F4E730B5C0B189B1C2B1CBB157
:1035F0000024C0E9014202FB01F41D190160C3600F
:10360000436105611846013904D1A41A19510121F9
:10361000084630BD851805602846F4E70146F7E7FF
:103620001146F5E71946F3E710B50346A8B100F1D6
:10363000140252E8000F10B9BFF32F8F04E00168A5
:1036400042E8001404B1F4E738B1043353E8002F22
:10365000511C43E8001404B1F8E710BD30B5F0B1D7
:10366000C3688B421BD803698B4218D900F114033D
:103670001A680A60BFF35F8F53E8002F0C6894420A
:10368000F6D143E8001505B1F2E7043050E8003FF9
:103690005A1E40E8002101B1F8E7002030BD6FF06C
:1036A0000300FBE7EFF310832BB9EFF31180003831
:1036B00018BF0120704701207047D1E9013223B1C2
:1036C0009A608A681AB153607047C262F9E703636F
:1036D000704700002DE9F84F8846074638B131B1F0
:1036E000B0FA80F1B8FA88F30B441F2B06DC6FF0B8
:1036F0000301002001F076FC002470E008F10306CD
:1037000026F003060C3606FB00F9F2B19468D2F8F5
:1037100000A0D2E904513CB1A30702D1D368332BF6
:1037200005D86FF00801E4E7D368002BF9D13DB16B
:1037300015F0030301D1894556D96FF00901D8E787
:103740000029FAD11CB18B460DE092461546284B54
:10375000D3F8A000E0B1FFF767FF0446A8B1002D41
:1037600040D14FF0010B224B0022D86F4946FFF7A2
:10377000E7FE0546C0B9BBF1000F06D01C4BD3F8DD
:10378000A000214658B1FFF769FF6FF00401B0E7D0
:10379000D3F8800001223421FFF7D2FEDDE7D3F811
:1037A0008000FFF702FFF0E74A4600210DF070FCB1
:1037B0004BF00203FA22A3700023C4E90983C4E991
:1037C0000B332270A36032462B46C4F804A039465E
:1037D00004F10C00FFF707FF054B064A1A67204665
:1037E000BDE8F88F0123E5E7002CE3D1AFE700BF88
:1037F000780400208538010010B500F1280353E853
:10380000002F12B9BFF32F8F04E0511E43E80014BC
:1038100004B1F4E70AB9002010BDC06A01220028F3
:10382000F9D0811CD1E84F3FC1E8442F04B1F9E73A
:10383000DBB2002BF0D08068F1E7036B30B5E3B169
:10384000CD780024DA78AA420FD31A46C1E90124C0
:103850008AB19160A4B16160283050E8003F5A1CE1
:1038600040E8002101B1F8E730BD5A681C46002A43
:10387000ECD01346E6E7C162ECE7C1E90133C1626F
:103880000163E9E7F8B5877804468FB3C568014658
:1038900000272846FFF711FF277005F10C0420468A
:1038A000FFF7DCFEAB68002B48D02046FFF7BCFEDC
:1038B0000446002842D0284600F0DAFE3A46064682
:1038C000394601F073F8304600F048FF6A6A8168B3
:1038D000064604F10C000DF0DDFAF9232370A77001
:1038E000F368E37021462846BDE8F840FFF7A5BF1E
:1038F0008568AB68002BF5D05B78832BF2D1284626
:1039000000F0B6FE3A460646394601F04FF830461A
:1039100000F024FF06466A6A806804F10C010DF08D
:10392000B9FAF3680BB1E2781A70002323702146CC
:1039300005F10C00BDE8F840FFF790BEF8BD0000AF
:103940002DE9F0410C4617469846054618B1037814
:10395000FA2B00D141B928466FF0030101F042FB78
:103960006FF00300BDE8F0818368C3B15B78832BFF
:1039700015D100F07DFE01220646002101F016F867
:10398000304600F0EBFE06466A6A806821460DF07C
:1039900081FAF0680028E5D007700020E2E705F121
:1039A0000C00FFF741FE064670B121466A6A0C30F2
:1039B0000DF070FA0024F9233370B470F7703146BB
:1039C0002846FFF73AFFE8E7B8F1000F10D041466C
:1039D000932001F093F840B1074B2846596900F055
:1039E00035FEEFF30983C3E902476FF00100B9E741
:1039F0006FF00200B6E700BF780400202DE9F04127
:103A00000F4615469846044618B10378FA2B00D1A4
:103A100041B920466FF0030101F0E4FA6FF00300B2
:103A2000BDE8F081FFF7E8FE064600283AD00146DF
:103A30002046FFF742FE626A06F10C0138460DF09F
:103A400029FA0DB1F3782B70002504F10C073570BD
:103A500031463846FFF702FEA3680BB90020DFE7C6
:103A60003846FFF7E1FD06460028F7D0204600F073
:103A7000FFFD29460746012200F098FF384600F076
:103A80006DFE626A8168074606F10C000DF002FACD
:103A9000F9233370B570FB68F37031462046FFF7A9
:103AA000CCFEDBE7B8F1000F10D04146832001F0D7
:103AB00025F840B1074B2046596900F0C7FDEFF3E8
:103AC0000983C3E902756FF00100A9E76FF00200F6
:103AD000A6E700BF7804002008B5064B08219A6EBF
:103AE000D86EFFF7F7FD044BD864B0FA80F04009B8
:103AF000404208BD184C0200780400202DE9F04136
:103B000006460F4690461C46EFF305834BB196B927
:103B100030466FF0030101F065FA6FF00300BDE875
:103B2000F081FFF7BFFD0028F1D1DFF84CC030462F
:103B3000234600DFF3E73378FA2BE9D1002FE7D0F3
:103B4000002CE5D106F10C00FFF76EFD054680B1B3
:103B5000726A39460C300DF09DF9F9232846C5E903
:103B600001762B70AC7085F8038000F06DFC204668
:103B7000D5E76FF00200D2E741390100F8B50446FD
:103B80000F4616461D46EFF3058343B18CB9204618
:103B90006FF0030101F026FA6FF00300F8BDFFF7A4
:103BA00081FD0028F2D1DFF848C020462B4600DF17
:103BB000F4E72378FA2BEAD1002FE8D0002DE6D1E4
:103BC0002046FFF719FE054670B100F10C01626A4C
:103BD00038460DF05FF90EB1EB7833702846EC6093
:103BE00000F032FC0020D9E76FF00200D6E700BFFA
:103BF000FD390100EFF310832BB9EFF3118000388A
:103C000018BF0120704701207047000070B5A8B3AD
:103C10008468D0E900566CB114F0030302D1C26885
:103C20001B2A1AD86FF00801002001F0CBF90024FC
:103C3000204670BDC368002BF4D1124BD3F894001A
:103C400030B9D3F8800001221C21FFF779FC01E094
:103C5000FFF7EAFC044660B10123F522A3700023BC
:103C6000C4E90233C4E904332270E6706560237648
:103C7000DEE76FF0040101F0A5F9D9E70546064635
:103C8000DBE700BF78040020284B70B55D6904466F
:103C90000E4635B96FF0070101F094F94FF0FF308F
:103CA00070BD10B10378F52B07D020466FF00301EB
:103CB00001F088F96FF00300F2E7037E53B9C0E921
:103CC0000353EB6A436103B11861EC62012323766D
:103CD0000020E5E7C278D1070DD5C168A9420AD115
:103CE000FF2B06D16FF00F0101F06CF96FF00200AD
:103CF000D6E70133EBE7002EF8D093070AD5E0684A
:103D000095F9203090F920209A4203DA80F820308B
:103D100000F0C0FC3146532000F0F0FE18B12946F7
:103D2000204600F093FC6FF00100B9E77804002012
:103D30002E4B5A6970B5044632B96FF0070101F095
:103D400041F94FF0FF3070BD10B10378F52B07D06B
:103D500020466FF0030101F035F96FF00300F2E740
:103D6000037E33B96FF00E0101F02CF96FF0020001
:103D7000E9E7C168914202D06FF00D01F4E7013B21
:103D8000DBB2037613BB43690BB101691961216989
:103D9000F1B14B6192F92130D56ADDB982F820305A
:103DA000A36883B1204600F063FC06462A462946F4
:103DB00000F0FCFDF36A6361C4E9036503B11C61B3
:103DC0000123F4622376002000F0DAFC0020BAE739
:103DD000D362DFE7E978890706D5A96821B191F9AF
:103DE00020108B42B8BF0B466D69D6E778040020DF
:103DF00070B5044610B10378F52B07D020466FF05C
:103E0000030101F0DFF86FF0030070BD037EBBB16A
:103E10006369C0680BB122691A61226902B35361F8
:103E200090F92120C36AEBB990F92030934203D076
:103E300080F8202000F02EFCA068F8B900F0A0FC6B
:103E4000A078002610F001002670DED0134BD3F8C6
:103E500094502146DDB12846FFF700FC3046D4E7F8
:103E6000C362DDE7D978890706D5996821B191F950
:103E700020108A42B8BF0A465B69D4E7204600F0AA
:103E8000F7FB00226FF0020100F090FDD4E7D3F8B9
:103E90008000FFF78AFB2846B7E700BF78040020C0
:103EA0002DE9F0410446002601270CB9BDE8F08158
:103EB000E378D4F814801B0712D5A36826767BB16B
:103EC000204600F0D5FB00220546114600F06EFDAD
:103ED000EB6A6361C4E9035603B11C61EC622776A7
:103EE0004446E2E710B4C3789B071DD5C06890F93B
:103EF0002120C36ADC78A40709D59C688C4208BFDE
:103F00008C6824B194F92040A242B8BF22465B6974
:103F1000002BEFD190F92030934205D080F820207B
:103F20005DF8044B00F0B6BB5DF8044B7047000031
:103F300008B50246EFF3058333B100206FF00501A9
:103F400001F040F8002008BDFFF754FE0028F4D12E
:103F5000DFF808C0104600DFF5E700BF0D3C0100A8
:103F600008B50246EFF305833BB110466FF005013B
:103F700001F028F86FF0050008BDFFF73BFE0028B0
:103F8000F3D1DFF808C0104600DFF5E7893C0100F7
:103F900008B50246EFF305833BB110466FF005010B
:103FA00001F010F86FF0050008BDFFF723FE0028B0
:103FB000F3D1DFF808C0104600DFF5E7313D01001E
:103FC00008B50246EFF305833BB110466FF00501DB
:103FD00000F0F8FF6FF0050008BDFFF70BFE0028AA
:103FE000F3D1DFF808C0104600DFF5E7F13D01002E
:103FF000EFF310832BB9EFF31180003818BF0120C5
:104000007047012070470C30D0E85F3F13B9BFF311
:104010002F8F04E05A1EC0E8512F01B1F4E798B287
:10402000003818BF0120704730B500F10C02C1897B
:10403000D2E85F3F994202D8BFF32F8F04E05C1CA7
:10404000C2E8554F05B1F3E7C0899BB2984294BFCF
:104050000020012030BD0000F8B50E464FF6FE737B
:10406000411E9942054601D8B04207D26FF00301C4
:10407000002000F0ADFF00242046F8BD1AB394687C
:10408000176844B114F0030302D1D2680F2A0ED886
:104090006FF00801ECE7D368002BF9D1114BD3F88E
:1040A000980090B1FFF7C0FA0446A8B10123A370AD
:1040B0000023F622A3600B4B22700B4A6760A68197
:1040C000E5819A66D8E71746E8E7D3F88000012231
:1040D0001021FFF735FAE7E76FF0040100F078FFF1
:1040E000CAE700BF780400205D41010070B50546B5
:1040F00010B10378F62B07D028466FF0030100F0CB
:1041000067FF6FF0030070BD836863B1284600F05D
:10411000AFFA00226FF0020100F048FCA868002806
:10412000F4D100F02DFBAB78002613F001032E70C4
:104130000FD0094BD3F89840294624B12046FFF709
:104140008DFA3046DFE7D3F88000FFF72EFA2046DD
:10415000D9E71846D7E700BF78040020836810B578
:1041600004465BB1FFF74FFF40B1204600F080FAF4
:104170000022BDE81040114600F018BC10BD38B553
:10418000054610B10378F62B07D028466FF00301DF
:1041900000F01EFF6FF0030038BD84683CB100F0F2
:1041A00067FA0122002100F001FC0020F4E7FFF78C
:1041B0003BFF38B928466FF0100100F009FF6FF09F
:1041C0000200E9E72046E7E738B50D46044610B19E
:1041D0000378F62B07D020466FF0030100F0F8FEBD
:1041E0006FF0030038BDFFF70EFF68B975B12946BF
:1041F000632000F083FC20B1064B2046596900F093
:1042000025FA6FF00100EDE70020EBE76FF0020008
:10421000E8E700BF7804002010B50446EFF30583FB
:1042200033B100206FF0050100F0D2FE002010BD78
:10423000FFF7DEFE0028F4D1DFF808C0204600DFDB
:10424000F5E700BF5940010010B502460C46EFF3F8
:10425000058343B182B910466FF0030100F0B8FE48
:104260006FF0030010BDFFF7C3FE0028F2D1DFF8A6
:1042700024C0104600DFF5E71378F62BEBD1002CB5
:10428000E9D11046FFF7BFFE002814BF00206FF0F1
:104290000200E7E7C941010010B50446EFF30583CA
:1042A00043B184B920466FF0030100F091FE6FF036
:1042B000030010BDFFF79CFE0028F2D1DFF830C0EC
:1042C000204600DFF5E72378F62BEBD12046FFF7F9
:1042D000ABFE20B1204600F0B7F80020E9E7204609
:1042E0006FF0100100F074FE6FF00200E1E700BF14
:1042F0007F41010008B50246EFF305833BB110464C
:104300006FF0050100F064FE6FF0050008BDFFF7D7
:104310006FFE0028F3D1DFF808C0104600DFF5E794
:10432000ED40010010B5D0E85F3F5A1C914200D823
:104330000022C0E8542F04B1F5E798B210BD000088
:1043400038B51C4C00F0D6FEE3680133E36000F0A2
:10435000D5F9002000F014FA236D03B19847226CC0
:1043600032B3A369E06BD969984202D0E36301B923
:10437000DA61DA69C2B9237A022B19D1656ABDB153
:10438000E36B95F9202093F920309A4210D128460A
:1043900000F077F9E06B00F08FF9284600F0E8F9BB
:1043A000236CE563EB6103E0013ADA61002AE2D0B5
:1043B00038BD00BF7804002070B5224C04F15605CA
:1043C00004F15A06B4F85410D5E85F3F13B9BFF3AF
:1043D0002F8F04E05A1EC5E8502F00B1F4E79BB2BE
:1043E0005BB33046FFF79EFFE36D53F8200020B328
:1043F0000378F13B082BE5D801A252F823F000BF67
:1044000025440100C54301002B440100C5430100C0
:10441000C54301002F44010033440100C54301009E
:1044200037440100236E9847CCE7636EFBE7A36E29
:10443000F9E7E36EF7E7236FF5E7BDE8704000208A
:1044400000F09EB97804002070B5164C0546B4F80B
:10445000541004F15602D2E85F3F994202D8BFF3EC
:104460002F8F04E0581CC2E8560F06B1F3E79BB249
:10447000994205D829460220BDE87040FEF7E5BF05
:1044800004F15800FFF74EFFE36D43F82050637AC4
:1044900023B9054B4FF080525A6070BD0123A372BF
:1044A000FBE700BF7804002000ED00E0EFF310838D
:1044B0002BB9EFF31180003818BF0120704701209D
:1044C00070470378F12B00D07047C068F9E700000F
:1044D00010B5C469621CD0E904310CD103B1596133
:1044E00042691AB113610023436101E0074A136373
:1044F0000023C36110BD1BB1DA6959612244DA613E
:104500004269002AEED1014AD362F1E77804002023
:1045100010B50A4A90F9201001234370536A1C32E7
:104520001BB193F920408C4205DCC0E90232906057
:1045300003B1D86010BD1A469B68F1E778040020EB
:10454000014B5869704700BF7804002010B5002364
:10455000038083789A07044608D513F0100F016B87
:104560000E4B0FD0D3F88400FFF778F8A378DB0761
:1045700012D50A4BD3F88800214638B1BDE8104067
:10458000FFF76CB8586FFFF710F8EFE7BDE8104081
:10459000D3F88000FFF709B810BD00BF78040020F1
:1045A00008B500F025FDDFF810C000DF4FF0FF3147
:1045B000002000F0FBFCFEE7154A0100C278D2079C
:1045C000034601D4FFF7C2BF04220549427000220E
:1045D000C2604A6B826002B1D0604B63704700BF1B
:1045E00078040020930710B502F0010422D400F1F2
:1045F000280384B153E8000F00EA01028A4203D085
:10460000BFF32F8F002005E020EA010243E80024D9
:1046100004B1EFE710BD53E8000F084203D1BFF328
:104620002F8F002005E020EA010243E8002404B1B6
:10463000F1E7EFE7806A01EA00031CB18B4218BF83
:104640000020E7E7002B08BF0020E3E710B591F951
:10465000202083681BB193F92040944205DAC1E918
:104660000230816003B1D96010BD18469B68F1E744
:1046700083689A68826002B1D0600022DA601846CE
:104680007047C2682AB18368936003B1DA6000237F
:10469000C360704710B5044664B12378F12B07D08E
:1046A000FFF7EFFF01462046BDE81040FFF7CEBF01
:1046B000E468F1E710BD00000123014643700148A2
:1046C000FFF7C4BF9404002070B50B4D2E7A022E64
:1046D00010D16C6A74B1696994F9202091F9203085
:1046E0009A4207D12046FFF7CCFF0846FFF7E4FFC8
:1046F0006670AC61002070BD7804002038B5164D9E
:10470000EC6A44B3E369013BE36123BB6378732B39
:1047100006D009D8532B0BD003F0DF03432B0DD168
:104720002046FFF7CEFE09E003F0EF03832BF6E708
:104730002046FFF7C6FE2146FFF7D4FB2046FFF7D1
:10474000A0FFFFF7B9FF246924B1E369002BDDD096
:1047500000236361EC6238BD7804002090F82230B9
:10476000826B13F0100F0CBF6020202010447047A4
:1047700002234370014B9861704700BF780400200A
:1047800070B5124D04462E7A696990B9022E0FD188
:104790006C6A6CB194F9202091F920309A4207DDBF
:1047A0002046FFF76EFF0846FFF7B2FE6670AC6169
:1047B00070BD022E05D190F9202091F920309A4247
:1047C000F1DC2046BDE87040FFF776BF780400209A
:1047D0002DE9F04F85B08046029128B96FF00301B2
:1047E00000F0E4FB0024ABE0002A48D0D2E900A3AB
:1047F000946896690193D2E904B544B1A10702D146
:10480000D268432A06D86FF008010020E8E7D26892
:10481000002AF8D1BBF1000F08D01BF0070F02D11E
:10482000002D40F0A9806FF00A01EEE72EB1721E54
:10483000372A03D96FF00B01E7E71826002D40F067
:104840009F804CBB534CD4F88800F0B1FEF7ECFECF
:104850000446002800F08D800127DFF83891BBF175
:10486000000F32D1D5B94C4AD9F88400556DA8B1A2
:10487000FEF7DAFED0B147F01007834621E09246FA
:104880009346182615460192DCE7D4F880000122F1
:104890004421FEF755FEDBE70027DEE7D9F8740078
:1048A0005A462946FEF74CFE0028E6D1002F55D087
:1048B000D9F88820002A47D021461046FEF7CEFEC0
:1048C000002447F00207002C53D040F2F11222805E
:1048D0000022C4E90222C4E90422C4E90622C4E990
:1048E0000922C4E90B2BA5F140025A44C4E90E2861
:1048F000019B2A4AE37076B2FD21A770C4F804A098
:1049000084F8206084F8216061846563CBF800201E
:10491000214A1268530723D4A36B3422184600217E
:104920000CF0B6FB1E4A1F4BC0E90D284FF08072F9
:10493000C263029A02622046C9F86030FFF720FF86
:10494000204605B0BDE8F08F2146D9F880000392DB
:10495000FEF72BFE039A14469346B2E73C46B0E7B7
:1049600025F00302443ACC210BF104000CF090FB3B
:10497000D2E76FF0040148E7002E7FF458AF182605
:104980006A077FF450AF084AA5F1480191427FF6CB
:1049900058AF48E778040020184C0200A52E5AE2D0
:1049A000A1450100D1490100B7FFFF7F38B5054699
:1049B0001446FFF7D3FE01602846FFF789FD1CB1BE
:1049C000BDE83840FFF7DCBEBDE83840FFF774BEF5
:1049D00010B54378332B04460CD1416A90F823205C
:1049E000FFF700FE014628B120460022BDE8104036
:1049F000FFF7DCBF10BD10B50446806918B1002276
:104A00001146FFF7D3FF6378232B02BFA368002270
:104A10009A6110BD70B50F4C267A022E18D1636AC8
:104A2000B3B16569E86AFFF73BFA2846FFF7E3FF91
:104A300004F11C00FFF71CFE4670A061EFF3098330
:104A4000AB63002363612846BDE87040FFF7B6BD45
:104A500070BD00BF7804002010B5044610B1037883
:104A6000F12B07D020466FF0030100F09FFA6FF0A2
:104A7000030010BD437803F00F03022B1ED0032B5D
:104A80002BD0012B2ED1FFF7FCFDE06AFFF708FACF
:104A90002046FFF7B0FF6178022926D11548FFF7BD
:104AA000E7FD154B41709861EFF30982A263002284
:104AB0005A612046FFF782FD0020DAE70E4B1A7A92
:104AC000022A02D15B6A002BDFD16FF0020120467F
:104AD00000F06CFA6FF00200CBE7FFF7D2FDFFF7B2
:104AE000F7FCD2E76FF00201F2E70020FFF748FE83
:104AF000DFE700BF940400207804002038B51F4C85
:104B0000237A022B35D1636A002B34D063694A1CA7
:104B1000587016D1226B002172B94FF0FF30C3E9F3
:104B20000421D86159B10B611548FFF7A1FD02239B
:104B30004370A061012038BD11461269ECE7236380
:104B4000F2E7E26A002012B1D569A9420BD2C3E9AB
:104B50000420D96158B10361002AE5D0D0695361BE
:104B6000401AD061E0E71046491B1269EBE7E362A7
:104B7000F2E70020DFE71846DDE700BF78040020F9
:104B80009404002038B50D4C0D48A26D0D4D002148
:104B9000FFF71EFE636EA8625BB1984758B9E26DDD
:104BA000E96C206EFFF714FEA864003818BF0120DE
:104BB00038BD0120FCE70020FAE700BF184C0200D6
:104BC0001D4F01007804002010B50446EFF3058363
:104BD00033B100206FF0050100F0E8F9002010BDAE
:104BE000FFF764FC0028F4D1DFF808C0204600DF9E
:104BF000F5E700BFD147010008B5EFF3058313B116
:104C0000054B586908BDFFF751FC0028F8D1DFF8C3
:104C10000CC000DFF6E700BF78040020414501002A
:104C200008B5EFF305833BB100206FF0050100F0FC
:104C3000BDF96FF0050008BDFFF738FC0028F3D17F
:104C4000DFF804C000DFF6E7C946010010B50446EE
:104C500000F0DAF9EFF305833BB120466FF0050170
:104C600000F0A4F96FF0050010BDFFF71FFC00284D
:104C7000F3D1DFF808C0204600DFF5E7594A01000C
:104C800030B50C4D6B6C002213B11C698C420AD9F3
:104C9000C0E9022301611BB11C699860641A1C61A0
:104CA0002AB1D06030BD1A46091BDB68ECE76864A6
:104CB000F8E700BF780400202DE9F041184D6C6C36
:104CC00054B323696E69013B23610127236913BB38
:104CD000E3680BB1A2689A606B640023E86C1A4623
:104CE00004F11801FEF70AFF58B1D5E90583214602
:104CF00003206B61FEF7A9FB6B6913B9B04508BFD0
:104D00000026E378012B09D161692046FFF7B8FF3F
:104D10006C6C002CDAD16E61BDE8F0816770F7E74A
:104D20007804002008B5FEF7D7FE18B9034B044AF3
:104D30001A6508BD4FF0FF30FBE700BF7804002084
:104D4000B94C010007B504464FF0FF330022694615
:104D50002046FEF713FF0028F6D1DDE90030984722
:104D6000F2E7000008B5094B094A1A60094B9B1A83
:104D7000094A1360094B0A4A1A600A4B9B1A0A4AED
:104D8000136000F051F800F069F800BF9C29002082
:104D900000FC032000000420982900207CAE0020A5
:104DA00080B6002000FC032078AE00200E4838B505
:104DB0000E4B03600B250E4B45601C24C4608360C2
:104DC000FFF7B6F80B4B18600B480C4BC460C0E9FA
:104DD00000350B4B8360FFF7ABF80A4B1860BDE85A
:104DE00038400BF063BC00BF68290020EC4C020087
:104DF0007C2900207829002038290020F94C020065
:104E00004C29002048290020FDF7FABD024B4FF045
:104E1000FF311868FFF7A4B878290020014B186803
:104E2000FFF7B6B87829002008B505F0A3FEBDE865
:104E3000084000F011B87047704708B500F042F81C
:104E4000FFF7F9FFFFF7B2FFFFF7F6FF03F004FDEE
:104E5000BDE80840FFF7D8BFFEF702BB114C124B6C
:104E600023614FF4004363614423E3600F4BA3606D
:104E7000182307B5A3610E480E4B2360224600217C
:104E8000FFF7A2FE034628B90B49009022460B48C3
:104E900003F0EAFCFEF7FCFA0023094900931A46E6
:104EA000F5E700BFA0A90020A0290020C4A9002088
:104EB0003B4E0100034D0200084D02001D01018020
:104EC000244D02001FB5064B0FCB6C4684E80F0043
:104ED0002046FFF72DF8034B186004B010BD00BF4B
:104EE0004C4D020008AA002073B506460C46154634
:104EF00003F0B4FC58B906342ABF064B064953F8F0
:104F00002410002300933246284603F0ADFC02B083
:104F100070BD00BF104F0200644E020008B500F0E3
:104F2000F3F8000007B50023411E0093024600235A
:104F3000042919D8DFE801F003080C1014000C490B
:104F40000C48012203F090FC0B490C480222F9E7BF
:104F50000B490C480322F5E70B490C480422F1E702
:104F60000B490C480522EDE70B490C48EAE700BF66
:104F70005C4D0200250102807D4D02002601028069
:104F8000A24D020027010280D74D020028010280B5
:104F9000124E02002A010280524E020000010280DD
:104FA000014A0146FFF7A0BF31010180014AFFF726
:104FB0009BBF00BF32010180014AFFF795BF00BFD0
:104FC00037010180014AFFF78FBF00BF3301018025
:104FD00011F1110F02D0024AFFF786BF704700BFE0
:104FE00034010180014AFFF77FBF00BF3801018013
:104FF00010B5FFF701FE034B1B6813B1BDE810406D
:10500000184710BD28AA0020024B1B6803B118479F
:10501000704700BF28AA0020024B987A003818BFBA
:10502000012070477804002008B5FEF747FA0749C9
:10503000002203F0ABFCC31C04D9054905488B22B0
:1050400003F0F6F9BDE80840FEF74CBA195001002C
:10505000284F02005D4F0200B0F57A7F38B50D464B
:1050600004D018491848322203F0E2F902F0FAFE9F
:10507000041E13DB04F1604303F56143E02283F86F
:1050800000232946204604F091FE204604F096FEB7
:1050900085420AD00B490D483F22E5E70C4B04F04E
:1050A0000F021344E0221A76EBE7002C07DB094AD3
:1050B0006109012304F01F04A34042F821300020BD
:1050C00038BD00BF284F02008A4F0200974F0200F0
:1050D000FCEC00E000E100E008B503F0DFFBBDE818
:1050E000084002F0B4BF0000014B186802F0E4BFB2
:1050F000A8AD0020014B186802F0A0BFA8AD0020A9
:1051000008B502F0AFFE08BD08B5024C2368984709
:10511000FCE700BF1C05002003680BB108461847D8
:105120007047CB68C3600BB15B68184770470000DD
:10513000044B0022C3E900229A601A61024ADA6035
:10514000704700BF2CAA00201951010038B5044651
:105150000D46002100F8011B10220BF099FF65821B
:10516000204638BD08B542F602110248FFF7EEFFAF
:1051700008BD00BF40AA0020C36810B52BB905497F
:1051800005484FF4FD7203F053F9BDE810401B6869
:10519000184700BFC44F0200F34F0200034B1A78B8
:1051A000034B53F8223003B1184770472005002005
:1051B00054AA0020074B1B785BB1074B0122C3F8B0
:1051C0000823064B5A78FF2A00D1FEE7044A1288CA
:1051D0005A7070476CAB002000F0004068AA0020B5
:1051E0006EAB0020F8B50546064655F8044B8CB961
:1051F0000D4F386818B14FF0FF31FEF7B1FE34683B
:1052000024B9284604F0C8F82C463560386808B13F
:10521000FEF7BEFEAC4204D0044905488B2203F0E1
:1052200007F92046F8BD00BF08AA0020FF4F020082
:1052300032500200704710B50C21044603F0FEFE08
:10524000204610BD37B50546044655F8043B01918C
:105250009B6898472846019904F026FF2368DB687D
:10526000204603B0BDE83040184738B5054604462F
:1052700055F8043B9B689847284604F049FF23688B
:105280000546DB6820469847284638BD08B50348E0
:10529000FFF7A8FFBDE8084004F086B870AB002017
:1052A00008B50348FFF79EFFBDE8084004F09AB830
:1052B00070AB002013B5084B036004468260019177
:1052C000FFF7E4FF0199201D04F0D6FE2046FFF70A
:1052D000E7FF204602B010BD6050020003680122C3
:1052E0001B6900211847036800221B6911461847F3
:1052F00007B5019003F046F90198012105F078F90E
:1053000003B05DF804EB03F053B907B5019003F067
:1053100039F90198002105F06BF903B05DF804EB51
:1053200003F046B907B5CDE9001003F02BF9DDE92C
:10533000001005F03BF903B05DF804EB03F038B959
:10534000416830B4034671B1D0E9032000F0010494
:1053500002B944B1451001EB60000CB149598A58BB
:10536000996830BC104730BC7047000008B5431C3A
:1053700004D10E490E48212203F05AF8012351B1FD
:105380001F2886BF0B4A00F01F004FF0A042834049
:10539000C2F8083508BD1F2886BF064A00F01F0066
:1053A0004FF0A0428340C2F80C35F3E77050020082
:1053B000A94B020000030050064B10B504460360E1
:1053C000806A08B102F082FB201DFBF765FE2046D3
:1053D00010BD00BFB450020010B50446FFF7ECFF4B
:1053E0002046A82103F02AFE204610BD036870B5B0
:1053F00004460D461B68984704F13000A56729460E
:1054000005F006FA236820465B68BDE8704018473F
:105410007FB506461D4656F8303BCDE902211B6894
:10542000044698479DF8203083F00103DDE902210E
:10543000009330462B4605F047FA236806465B6822
:1054400020469847A81B18BF012004B070BD7FB547
:1054500006461D4656F8303BCDE902211B6804463E
:1054600098479DF8203083F00103DDE90221009385
:1054700030462B4605F00CFA236806465B6820464A
:105480009847A81B18BF012004B070BD7FB5002449
:10549000012615462346224602A800968DF80840AC
:1054A00002F086F803A800962346224629468DF886
:1054B0000C4002F07DF803A805F04AF8002853D00C
:1054C00002A805F045F8B04202D1002004B070BD3A
:1054D000214603A8FFF726FF03A8FFF709FF0A24C8
:1054E000002103A8FFF71EFF00219DF90C00FFF724
:1054F0003DFF052003F0D8FE032103A8FFF712FFAC
:105500009DF90C000121FFF731FF052003F0CCFECF
:10551000013CE5D102A8FFF7EBFE21469DF908000A
:10552000FFF724FF052003F0BFFE01219DF90C00C9
:10553000FFF71CFF052003F0B7FE01219DF90800CD
:10554000FFF714FF052003F0AFFE02A8FFF7DDFE12
:1055500003A8FFF7DAFE03A804F0FAFF20B102A8BF
:1055600004F0F6FF0028B0D16FF00100AEE710B5EF
:1055700000210446242240F8041B0BF089FD20463C
:1055800010BD08B57C30FFF72DFEBDE8084003F0E4
:105590000BBF08B57C30FFF725FEBDE8084003F0DF
:1055A00021BF0000F8B5194B03600D46184B43614D
:1055B000002100F130070446C0E90711C0E90911D4
:1055C0000161818516468061482238460BF060FDF6
:1055D000104BA36704F17C00FFF7C9FF2046FFF7DB
:1055E000D0FF3246294684F8A45084F8A5602046AE
:1055F000FFF74CFF94F9A52094F9A410384605F064
:10560000C1F82046FFF7C5FF2046F8BDB4500200A0
:1056100041530100A086010070B504460D461646B0
:10562000002148220BF034FD32462946204605F081
:10563000A9F82046044905F0EBF82046012105F0C1
:1056400065F9204670BD00BFA086010005F0E0B8F6
:10565000CAB2002342F00102194605F0BBB905F0B9
:1056600067B905F077B910B5144605F093F9001B3A
:1056700018BF012010BD05F0E3B87047416830B491
:10568000034671B1D0E9032000F0010402B944B12E
:10569000451001EB60000CB149598A58996830BC3B
:1056A000104730BC7047000070B500F14C0690F90F
:1056B000DF2090F9DE100446304605F0FFFCD4E907
:1056C00039530DB9DA070ED55A1004EB6300DB0726
:1056D00048BFA35894F8EC1048BF5D5994F9ED20E9
:1056E00094F9EE30A847D4F8D810304605F0FCFD08
:1056F000224630460249BDE8704005F0D3BE00BFE7
:10570000D55901002DE9F0411F46D0F8E03004469C
:105710000D4616462BB11749174840F22B1202F0DE
:1057200087FE164AC0E9392303681B68984784F846
:10573000EC5084F8ED6084F8EE70032D0BD8DFE8B0
:1057400005F0150210154FF0FF333246012104F128
:105750004C0005F081FE236820465B68BDE8F041FF
:10576000184733464FF0FF320221F0E73B463246FE
:105770002946ECE7C4500200EC5002000557010036
:105780002DE9F04198461D4B03601D4B43600025F9
:105790001C4B85600446C0E90555C0E907550F4616
:1057A0001646C360858445634564A0F848506C2262
:1057B000294600614C300BF06BFC40F20113A4F859
:1057C000DC304FF47F43A4F8EC30FF232046C4E9DB
:1057D0003558C4E93855C4E93C55C4F8C45084F878
:1057E000DE7084F8DF60C4F8E85084F8EE30C4F866
:1057F000F850FFF759FF2046BDE8F0810C51020038
:10580000A95601007D56010070B50646044656F8BB
:105810004C3B0D461B6898473046294605F064FD11
:105820002368C4F8D85020465B68BDE8704018472C
:105830007FB50546044655F84C6B0193CDE902212E
:105840003668B047DDE901322846039905F0CCFD02
:1058500023685B68204604B0BDE87040184738B53F
:105860000546044655F84C3B1B689847284605F00A
:10587000CDFE236805465B6820469847284638BD1C
:1058800038B50546044655F84C3B1B6898472846F2
:1058900005F0DCFE236805465B68204698472846ED
:1058A00038BD03682DE9F34105461B6816460F46CF
:1058B000984795F8DC30340103B1B6B195F8DD3086
:1058C0000BB1012E11D0B8342819B84206D001907E
:1058D000FBF7E2FB01983946FFF723FC2B685B6876
:1058E000284602B0BDE8F0411847B83402F04AFE3D
:1058F0002C44FA68E36805F14C089AB10BB903F03F
:1059000077F8A74206D02046FBF7C6FB394620466B
:10591000FFF707FC01223146404605F0D3FD02F0B7
:1059200047FEDBE70BB103F079F82046FBF7B4FB49
:105930000022E260EFE7000030B51B4B036085B04A
:1059400000252A46694604460395FFF7AAFF6846E4
:10595000FBF7A2FB0122694620460395FFF7A1FF52
:105960006846FBF799FB94F8DC3013B994F8DD3006
:105970001BB104F14C0005F081FC04F1C800FBF7F9
:105980008BFB04F1B800FBF787FB04F13800FBF751
:1059900083FB04F12800FBF77FFB206A08B102F0CB
:1059A00095F8204605B030BD0C51020010B50446F4
:1059B000FFF7C2FF2046FC2103F040FB204610BD4C
:1059C0004C3005F0ABBD10B54C300C4605F0E8FD91
:1059D000204610BD00EB0110B83008B5C3680BB10C
:1059E000FFF7CAFB08BD036870B504461B680D4687
:1059F000984794F8DC30AB422BD065B194F8DD3099
:105A00004BB9A2686368511004EB6200D20744BF2F
:105A10006258D358984702F0B5FD05B3D4F8C430A6
:105A20005BB104F1B800FFF7A7FB02F0E1FF012230
:105A3000002104F14C0005F045FD02F0B9FD84F8A9
:105A4000DC5035B994F8DD301BB904F14C0005F099
:105A500015FC236820465B68BDE8704018472A465D
:105A6000294604F14C0005F02DFDD4F8C430002B7C
:105A7000E3D002F0D3FFE0E7036870B504461B688B
:105A80000D46984794F8DD30AB422BD065B194F8C1
:105A9000DC304BB9A2686368511004EB6200D20796
:105AA00044BF6258D358984702F06CFD05B3D4F850
:105AB000D4305BB104F1C800FFF75EFB02F098FF41
:105AC0000122114604F14C0005F0FCFC02F070FDCF
:105AD00084F8DD5035B994F8DC301BB904F14C0082
